{
    "contractName": "Calculator",
    "abi": [
        {
            "inputs": [
                {
                    "internalType": "uint256",
                    "name": "_num1",
                    "type": "uint256"
                },
                {
                    "internalType": "uint256",
                    "name": "_num2",
                    "type": "uint256"
                }
            ],
            "name": "divideNums",
            "outputs": [],
            "stateMutability": "nonpayable",
            "type": "function"
        },
        {
            "inputs": [],
            "name": "value",
            "outputs": [
                {
                    "internalType": "uint256",
                    "name": "",
                    "type": "uint256"
                }
            ],
            "stateMutability": "view",
            "type": "function"
        }
    ],
    "bytecode": "608060405234801561001057600080fd5b5061016d806100206000396000f3fe608060405234801561001057600080fd5b50600436106100365760003560e01c80633fa4f2451461003b578063eb4a303414610056575b600080fd5b61004460005481565b60405190815260200160405180910390f35b610069610064366004610115565b61006b565b005b60405163f88e9fbf60e01b8152600481018390526024810182905273__$de91a843ba75b2635e5fec5007a23c6b5c$__9063f88e9fbf9060440160206040518083038186803b1580156100bd57600080fd5b505af41580156100d1573d6000803e3d6000fd5b505050506040513d601f19601f820116820180604052508101906100f591906100fc565b6000555050565b60006020828403121561010e57600080fd5b5051919050565b6000806040838503121561012857600080fd5b5050803592602090910135915056fea26469706673582212205062068893daadcdc61c3ad66f781968fcee4e74f3a7a70121d5041c243a015564736f6c63430008070033",
    "sourcePath": "c:/Users/foofoofoo/Desktop/solidity_practice/contracts/Calculator.sol",
    "compiler": {
        "name": "solc",
        "version": "0.8.7+commit.e28d00a7"
    },
    "functionHashes": {
        "divideNums(uint256,uint256)": "eb4a3034",
        "value()": "3fa4f245"
    },
    "gasEstimates": {
        "creation": {
            "codeDepositCost": "73000",
            "executionCost": "123",
            "totalCost": "73123"
        },
        "external": {
            "divideNums(uint256,uint256)": "infinite",
            "value()": "2261"
        }
    }
}